:020000040800F2
:100000000050002059130008991F00089B1F00088A
:100010009D1F00089F1F0008A11F0008000000008E
:10002000000000000000000000000000A31F000806
:10003000A51F000800000000A71F0008A91F000856
:10004000A1130008A1130008A1130008A1130008C0
:10005000A1130008A1130008A1130008A1130008B0
:10006000A1130008A1130008A1130008A1130008A0
:10007000A1130008A1130008A1130008A113000890
:10008000B11F0008C11F0008A1130008A113000838
:10009000A1130008A1130008A1130008A113000870
:1000A000A1130008D11F0008A1130008A113000824
:1000B000E11F0008A1130008A1130008F11F0008A8
:1000C00001200008A1130008A1130008A1130008D3
:1000D000A1130008A1130008A1130008A113000830
:1000E000A1130008A1130008A113000800000000DC
:1000F0000000000000000000000000000000000000
:0C01000000000000000000005FF808F1A3
:1001100010B5054C237833B9044B13B10448AFF341
:1001200000800123237010BDE006002000000000C5
:10013000CC9C000808B5034B1BB103490348AFF33F
:10014000008008BD00000000E4060020CC9C0008F0
:100150004FF0FF0C1CEAD0521EBF1CEAD15392EAAA
:100160000C0F93EA0C0F6FD01A4480EA010C400286
:1001700018BF5FEA41211ED04FF0006343EA5010E0
:1001800043EA5111A0FB01310CF00040B1F5000F22
:100190003EBF490041EAD3715B0040EA010062F1D1
:1001A0007F02FD2A1DD8B3F1004F40EBC25008BFBB
:1001B00020F00100704790F0000F0CF0004C08BFD9
:1001C00049024CEA502040EA51207F3AC2BFD2F1A6
:1001D000FF0340EAC250704740F400004FF00003B4
:1001E000013A5DDC12F1190FDCBF00F000407047EE
:1001F000C2F10002410021FA02F1C2F1200200FA2C
:1002000002FC5FEA310040F1000053EA4C0308BFF2
:1002100020EADC70704792F0000F00F0004C02BF43
:10022000400010F4000F013AF9D040EA0C0093F0BE
:10023000000F01F0004C02BF490011F4000F013B18
:10024000F9D041EA0C018FE70CEAD15392EA0C0F86
:1002500018BF93EA0C0F0AD030F0004C18BF31F0F1
:10026000004CD8D180EA010000F00040704790F0C7
:10027000000F17BF90F0004F084691F0000F91F06B
:10028000004F14D092EA0C0F01D142020FD193EA31
:100290000C0F03D14B0218BF084608D180EA0100B9
:1002A00000F0004040F0FE4040F40000704740F095
:1002B000FE4040F44000704781F0004102E000BF82
:1002C00083F0004330B54FEA41044FEA430594EA16
:1002D000050F08BF90EA020F1FBF54EA000C55EA51
:1002E000020C7FEA645C7FEA655C00F0E2804FEA22
:1002F0005454D4EB5555B8BF6D420CDD2C4480EA04
:10030000020281EA030382EA000083EA010180EA33
:10031000020281EA0303362D88BF30BD11F0004F81
:100320004FEA01314FF4801C4CEA113102D04042B7
:1003300061EB410113F0004F4FEA03334CEA1333F2
:1003400002D0524263EB430394EA050F00F0A7800A
:10035000A4F10104D5F1200E0DDB02FA0EFC22FA05
:1003600005F2801841F1000103FA0EF2801843FAF9
:1003700005F359410EE0A5F120050EF1200E012AEA
:1003800003FA0EFC28BF4CF0020C43FA05F3C01828
:1003900051EBE37101F0004507D54FF0000EDCF1A1
:1003A000000C7EEB00006EEB0101B1F5801F1BD34A
:1003B000B1F5001F0CD349085FEA30004FEA3C0C4E
:1003C00004F101044FEA445212F5800F80F09A8044
:1003D000BCF1004F08BF5FEA500C50F1000041EB48
:1003E000045141EA050130BD5FEA4C0C404141EB4C
:1003F0000101013C28BFB1F5801FE9D291F0000F47
:1004000004BF01460020B1FA81F308BF2033A3F1F5
:100410000B03B3F120020CDA0C3208DD02F1140CEC
:10042000C2F10C0201FA0CF021FA02F10CE002F127
:100430001402D8BFC2F1200C01FA02F120FA0CFC20
:10044000DCBF41EA0C019040E41AA2BF01EB045169
:10045000294330BD6FEA04041F3C1CDA0C340EDC67
:1004600004F11404C4F1200220FA04F001FA02F3AA
:1004700040EA030021FA04F345EA030130BDC4F168
:100480000C04C4F1200220FA02F001FA04F340EA5D
:100490000300294630BD21FA04F0294630BD94F00E
:1004A000000F83F4801306BF81F480110134013DF5
:1004B0004EE77FEA645C18BF7FEA655C29D094EA66
:1004C000050F08BF90EA020F05D054EA000C04BFE4
:1004D0001946104630BD91EA030F1EBF00210020CF
:1004E00030BD5FEA545C05D14000494128BF41F06E
:1004F000004130BD14F580043CBF01F5801130BDD2
:1005000001F0004545F0FE4141F470014FF000005C
:1005100030BD7FEA645C1ABF194610467FEA655C0D
:100520001CBF0B46024650EA013406BF52EA0335AF
:1005300091EA030F41F4002130BD00BF90F0000F9D
:1005400004BF0021704730B54FF4806404F13204D9
:100550004FF000054FF0000150E700BF90F0000F92
:1005600004BF0021704730B54FF4806404F13204B9
:1005700010F0004548BF40424FF000013EE700BF89
:1005800042004FEAE2014FEA31014FEA02701FBF19
:1005900012F07F4393F07F4F81F06051704732F04B
:1005A0007F4208BF704793F07F4F04BF41F40021A2
:1005B000704730B54FF4607401F0004521F0004100
:1005C0001CE700BF50EA010208BF704730B54FF08A
:1005D00000050AE050EA010208BF704730B511F08B
:1005E000004502D5404261EB41014FF4806404F1C3
:1005F00032045FEA915C3FF4D8AE4FF003025FEA49
:10060000DC0C18BF03325FEADC0C18BF033202EBCC
:10061000DC02C2F1200300FA03FC20FA02F001FA26
:1006200003FE40EA0E0021FA02F11444BDE600BFC9
:1006300070B54FF0FF0C4CF4E06C1CEA11541DBF78
:100640001CEA135594EA0C0F95EA0C0F00F0DEF843
:100650002C4481EA030621EA4C5123EA4C5350EA28
:10066000013518BF52EA033541F4801143F4801379
:1006700038D0A0FB02CE4FF00005E1FB02E506F00A
:100680000042E0FB03E54FF00006E1FB03569CF05F
:10069000000F18BF4EF0010EA4F1FF04B6F5007F65
:1006A00064F5407404D25FEA4E0E6D4146EB0606D7
:1006B00042EAC62141EA55514FEAC52040EA5E5060
:1006C0004FEACE2EB4F1FD0C88BFBCF5E06F1ED80A
:1006D000BEF1004F08BF5FEA500E50F1000041EB41
:1006E000045170BD06F0004646EA010140EA0200EE
:1006F00081EA0301B4EB5C04C2BFD4EB0C0541EA10
:10070000045170BD41F480114FF0000E013C00F324
:10071000AB8014F1360FDEBF002001F0004170BD48
:10072000C4F10004203C35DA0C341BDC04F1140461
:10073000C4F1200500FA05F320FA04F001FA05F2ED
:1007400040EA020001F0004221F0004110EBD370BA
:1007500021FA04F642EB06015EEA430E08BF20EAE6
:10076000D37070BDC4F10C04C4F1200500FA04F389
:1007700020FA05F001FA04F240EA020001F000411B
:1007800010EBD37041F100015EEA430E08BF20EA8E
:10079000D37070BDC4F1200500FA05F24EEA020ED6
:1007A00020FA04F301FA05F243EA020321FA04F005
:1007B00001F0004121FA04F220EA020000EBD370BC
:1007C0005EEA430E08BF20EAD37070BD94F0000FBC
:1007D0000FD101F00046400041EB010111F4801FF0
:1007E00008BF013CF7D041EA060195F0000F18BFA1
:1007F000704703F00046520043EB030313F4801FDD
:1008000008BF013DF7D043EA0603704794EA0C0F96
:100810000CEA135518BF95EA0C0F0CD050EA4106AC
:1008200018BF52EA4306D1D181EA030101F0004129
:100830004FF0000070BD50EA410606BF1046194651
:1008400052EA430619D094EA0C0F02D150EA01365D
:1008500013D195EA0C0F05D152EA03361CBF10469E
:1008600019460AD181EA030101F0004141F0FE413D
:1008700041F470014FF0000070BD41F0FE4141F4C1
:10088000780170BD70B54FF0FF0C4CF4E06C1CEAC1
:1008900011541DBF1CEA135594EA0C0F95EA0C0F76
:1008A00000F0A7F8A4EB050481EA030E52EA033531
:1008B0004FEA013100F088804FEA03334FF0805552
:1008C00045EA131343EA12634FEA022245EA11157F
:1008D00045EA10654FEA00260EF000419D4208BF30
:1008E000964244F1FD0404F5407402D25B084FEADD
:1008F0003202B61A65EB03055B084FEA32024FF489
:1009000080104FF4002CB6EB020E75EB030E22BFE5
:10091000B61A754640EA0C005B084FEA3202B6EBA5
:10092000020E75EB030E22BFB61A754640EA5C0054
:100930005B084FEA3202B6EB020E75EB030E22BFE4
:10094000B61A754640EA9C005B084FEA3202B6EBE5
:10095000020E75EB030E22BFB61A754640EADC00A4
:1009600055EA060E18D04FEA051545EA16754FEA06
:1009700006164FEAC30343EA52734FEAC2025FEA24
:100980001C1CC0D111F4801F0BD141EA00014FF0B3
:1009900000004FF0004CB6E711F4801F04BF014384
:1009A0000020B4F1FD0C88BFBCF5E06F3FF6AFAEA0
:1009B000B5EB030C04BFB6EB020C5FEA500C50F130
:1009C000000041EB045170BD0EF0004E4EEA1131B3
:1009D00014EB5C04C2BFD4EB0C0541EA045170BDBA
:1009E00041F480114FF0000E013C90E645EA060EFE
:1009F0008DE60CEA135594EA0C0F08BF95EA0C0F2C
:100A00003FF43BAF94EA0C0F0AD150EA01347FF473
:100A100034AF95EA0C0F7FF425AF104619462CE74A
:100A200095EA0C0F06D152EA03353FF4FDAE1046AD
:100A3000194622E750EA410618BF52EA43067FF4FE
:100A4000C5AE50EA41047FF40DAF52EA43057FF48E
:100A5000EBAE12E74FEA410212F5001215D211D5A2
:100A60006FF47873B3EB625212D94FEAC12343F0AB
:100A7000004343EA505311F0004F23FA02F018BF2D
:100A8000404270474FF00000704750EA013005D1F6
:100A900011F0004008BF6FF0004070474FF00000B9
:100AA000704700BF4FEA4102B2F1E04324BFB3F503
:100AB000001CDCF1FE5C0DD901F0004C4FEAC002D5
:100AC0004CEA5070B2F1004F40EB830008BF20F0B9
:100AD0000100704711F0804F21D113F13872BCBF73
:100AE00001F00040704741F480114FEA5252C2F1C8
:100AF0001802C2F1200C10FA0CF320FA02F018BF11
:100B000040F001004FEAC1234FEAD32303FA0CFC63
:100B100040EA0C0023FA02F34FEA4303CCE77FEAF2
:100B2000625307D150EA01331EBF4FF0FE4040F43C
:100B30004000704701F0004040F0FE4040F40000EB
:100B4000704700BF80F0004002E000BF81F000412C
:100B500042001FBF5FEA410392EA030F7FEA226C63
:100B60007FEA236C6AD04FEA1262D2EB1363C1BFF3
:100B7000D218414048404140B8BF5B42192B88BF62
:100B8000704710F0004F40F4000020F07F4018BF85
:100B9000404211F0004F41F4000121F07F4118BFA5
:100BA000494292EA030F3FD0A2F1010241FA03FC4D
:100BB00010EB0C00C3F1200301FA03F100F0004335
:100BC00002D5494260EB4000B0F5000F13D3B0F1FD
:100BD000807F06D340084FEA310102F10102FE2A6C
:100BE00051D2B1F1004F40EBC25008BF20F00100DC
:100BF00040EA03007047490040EB0000013A28BF7B
:100C0000B0F5000FEDD2B0FA80FCACF1080CB2EBFD
:100C10000C0200FA0CF0AABF00EBC250524218437B
:100C2000BCBFD0401843704792F0000F81F4000120
:100C300006BF80F400000132013BB5E74FEA4103F3
:100C40007FEA226C18BF7FEA236C21D092EA030F5F
:100C500004D092F0000F08BF0846704790EA010FD9
:100C60001CBF0020704712F07F4F04D1400028BF06
:100C700040F00040704712F100723CBF00F50000E8
:100C8000704700F0004343F0FE4040F4000070471E
:100C90007FEA226216BF08467FEA236301464202CA
:100CA00006BF5FEA412390EA010F40F480007047DD
:100CB0004FF0000304E000BF10F0004348BF404283
:100CC0005FEA000C08BF704743F0964301464FF0BF
:100CD00000001CE050EA010208BF70474FF000031B
:100CE0000AE000BF50EA010208BF704711F000435C
:100CF00002D5404261EB41015FEA010C02BF84462C
:100D00000146002043F0B64308BFA3F18053A3F58A
:100D10000003BCFA8CF2083AA3EBC25310DB01FAD1
:100D200002FC634400FA02FCC2F12002BCF1004F55
:100D300020FA02F243EB020008BF20F001007047E6
:100D400002F1200201FA02FCC2F1200250EA4C003A
:100D500021FA02F243EB020008BF20EADC70704780
:100D60004FF0FF3C06E000BF4FF0010C02E000BF77
:100D70004FF0010C4DF804CD4FEA40024FEA410319
:100D80007FEA226C18BF7FEA236C11D001B052EACF
:100D9000530C18BF90EA010F58BFB2EB030088BF95
:100DA000C81738BF6FEAE17018BF40F00100704704
:100DB0007FEA226C02D15FEA402C05D17FEA236CE6
:100DC000E4D15FEA412CE1D05DF8040B704700BF2D
:100DD000844608466146FFE70FB5FFF7C9FF0028C4
:100DE00048BF10F1000F0FBD4DF808EDFFF7F4FFFD
:100DF0000CBF012000205DF808FB00BF4DF808ED96
:100E0000FFF7EAFF34BF012000205DF808FB00BFB8
:100E10004DF808EDFFF7E0FF94BF012000205DF8DA
:100E200008FB00BF4DF808EDFFF7D2FF94BF01208B
:100E300000205DF808FB00BF4DF808EDFFF7C8FF84
:100E400034BF012000205DF808FB00BF4FEA4002DC
:100E5000B2F1FE4F0FD34FF09E03B3EB12620DD9E8
:100E60004FEA002343F0004310F0004F23FA02F052
:100E700018BF404270474FF00000704712F1610FF9
:100E800001D1420205D110F0004008BF6FF00040D0
:100E900070474FF00000704742000ED2B2F1FE4F93
:100EA0000BD34FF09E03B3EB126209D44FEA002339
:100EB00043F0004323FA02F070474FF00000704700
:100EC00012F1610F01D1420202D14FF0FF307047A1
:100ED0004FF00000704700BF034613F8012B002AB3
:100EE000FBD1181A013870474FF0FF3C06E000BFF5
:100EF0004FF0010C02E000BF4FF0010C4DF804CDA3
:100F00004FEA410C7FEA6C5C4FEA430C18BF7FEA62
:100F10006C5C1BD001B050EA410C0CBF52EA430C90
:100F200091EA030F02BF90EA020F0020704710F110
:100F3000000F91EA030F58BF994208BF90422CBF9F
:100F4000D8176FEAE37040F0010070474FEA410C98
:100F50007FEA6C5C02D150EA013C07D14FEA430CB6
:100F60007FEA6C5CD6D152EA033CD3D05DF8040B27
:100F7000704700BF8446104662468C461946634659
:100F800000E000BF01B5FFF7B7FF002848BF10F130
:100F9000000F01BD4DF808EDFFF7F4FF0CBF012075
:100FA00000205DF808FB00BF4DF808EDFFF7EAFFF1
:100FB00034BF012000205DF808FB00BF4DF808EDAC
:100FC000FFF7E0FF94BF012000205DF808FB00BFA1
:100FD0004DF808EDFFF7CEFF94BF012000205DF82B
:100FE00008FB00BF4DF808EDFFF7C4FF34BF012038
:100FF00000205DF808FB00BF4FEA410C7FEA6C5C03
:1010000002D150EA013C0AD14FEA430C7FEA6C5C02
:1010100002D152EA033C02D14FF0000070474FF07A
:101020000100704753B94AB9002908BF00281CBF06
:101030004FF0FF314FF0FF3000F08CB9ADF1080CEC
:101040006DE904CE00F006F8DDF804E0DDE90223E6
:1010500004B070472DE9F047089D8E460446884647
:10106000002B4AD18A42174662D9B2FA82F64EB1B3
:10107000C6F1200301FA06F820FA03F3B74043EA69
:101080000808B4404FEA174EB8FBFEF11FFA87FC80
:101090000EFB118801FB0CF2230C43EA08439A4231
:1010A00009D9FB1801F1FF3080F0EB809A4240F241
:1010B000E88002393B449A1AB2FBFEF00EFB102284
:1010C00000FB0CFCA3B243EA02439C4509D9FB1880
:1010D00000F1FF3280F0D7809C4540F2D4803B4441
:1010E000023840EA01400021A3EB0C031DB10022AD
:1010F000F340C5E90032BDE8F0878B4205D90DB158
:10110000C5E9000100210846F5E7B3FA83F100299B
:1011100046D1734502D3824200F20881841A6EEBF5
:10112000030201209046002DE5D0C5E90048E2E722
:10113000002A00F09180B2FA82F6002E40F0A580DD
:101140008A1A0121030C4FEA174E80B2BCB2B2FBDF
:10115000FEFC0EFB1C2243EA024304FB0CF29A4203
:1011600007D9FB180CF1FF3802D29A4200F2E38053
:10117000C4469B1AB3FBFEF20EFB123302FB04F4CF
:1011800040EA03439C4207D9FB1802F1FF3002D228
:101190009C4200F2CD8002461B1B42EA0C40A5E7B0
:1011A000C1F120068B4022FA06F71F432EFA06FAF9
:1011B0004FEA1749BAFBF9F80EFA01FE20FA06F3D6
:1011C00009FB18AA1FFA87FC43EA0E0300FA01FE86
:1011D00008FB0CF01C0C44EA0A44A04202FA01F29B
:1011E0000AD93C1908F1FF3A80F09E80A04240F2F3
:1011F0009B80A8F102083C44241A98B2B4FBF9F38E
:1012000009FB134403FB0CFC40EA0444A44509D940
:101210003C1903F1FF3080F08580A44540F28280C4
:10122000023B3C4443EA0840A4EB0C04A0FB028CC4
:1012300064454346E14664D361D05DB1BEEB030231
:1012400064EB090404FA06F622FA01F31E43CC40CB
:10125000C5E9006400214EE7B1FBF2FC010C41EA54
:101260000E4180B240EA01423B46B1FBF7F13846FD
:101270003C46B846BE462026A2EB080241EA0C4195
:1012800065E7014617E710462BE7C6F120012EFA65
:1012900001FCB7400EFA06FE20FA01F141EA0E0108
:1012A0004FEA174EBCFBFEF8BCB20EFB18CC08FB95
:1012B00004F90A0C42EA0C42B04091454FEA10434F
:1012C00080B23ED9BA1808F1FF3C01D291451FD82F
:1012D000A2EB0902B2FBFEF909FB04F80EFB192A86
:1012E0008AB242EA0A42424529D2BA1809F1FF31CC
:1012F000C2D24245C0D2A9F102013A44BCE7C64578
:101300009BD2B8EB02036CEB070C0138E14694E783
:10131000A7EB09094A44B2FBFEF9A8F1020C09FB4C
:1013200004F8DBE703467DE7D04665E70846FAE6C2
:101330003B44023A30E7ACF1020C3B4419E7494622
:101340009AE7A2EB0902B2FBFEF9C44609FB04F8D6
:10135000C4E700BF704700BF00F036FF0B480C49E0
:101360000C4A002302E0D458C4500433C4188C4201
:10137000F9D3094A094C002301E013600432A24268
:10138000FBD304F0CFF900F029F9704700000020EA
:10139000E0060020D8BA0008E00600207410002003
:1013A000FEE7000000B583B00E4B5A6942F001021F
:1013B0005A615B6903F001030193019B002211460E
:1013C000102001F009F9102001F016F90022114651
:1013D000112001F001F9112001F00EF903B05DF8C0
:1013E00004FB00BF0010024000B587B00023029349
:1013F00003930493059303F1804303F504339A693F
:1014000042F004029A619A6902F004020092009A82
:101410009A6942F008029A619B6903F008030193FC
:10142000019B0C2302930123049302A9024801F0BB
:101430002BFA07B05DF804FB0008014008B50B4823
:101440000B4B03600B4B436000238360C3604FF47E
:101450008042026143618361C361036201F0A0FEC7
:1014600000B908BD00F088F8FBE700BF8407002042
:1014700000540040801A060030B587B00023029364
:101480000393049305930268334B9A4201D007B04B
:1014900030BD0446314DAB6943F00803AB61AB6925
:1014A00003F008030093009B4FF440730293122350
:1014B00003930323059302A9294801F0E5F9294A7A
:1014C000536843F0E06343F002035360EB6943F475
:1014D0000013EB61EB6903F400130193019B2248B5
:1014E000224B03600023436083608022C26003615B
:1014F00043618361C36101F0A1F830BB1A4BA36360
:101500005C621B481B4B0360102343600023836015
:101510008022C260036143618361C36101F08EF880
:10152000B0B9134B63635C62002211461F2001F0C7
:1015300053F81F2001F060F800221146202001F02E
:101540004BF8202001F058F8A1E700F015F8D5E796
:1015500000F012F8E5E700BF005400400010024020
:10156000000C0140000001404007002080000240C4
:10157000FC0600206C00024072B6FEE700B591B098
:101580002822002106A804F078F800230193029392
:101590000393049305930223069301220A921022D7
:1015A0000B920D934FF460130F9306A802F0E6FD23
:1015B00080B90F23019302210291002303934FF47A
:1015C00080620492059301A803F00AF820B911B0D3
:1015D0005DF804FBFFF7D0FFFFF7CEFF80B582B0C8
:1015E00000F07CFFFFF7CAFFFFF7FEFEFFF7DAFE11
:1015F00000F084FEFFF722FF00F0E8FD00F0F2FEAD
:10160000322000F08FFF00F011F94D4C00212046F0
:1016100003F024FC204603F069F94A4803F066F918
:1016200017E000F0D1F800200090474B474A0146F0
:1016300000F076FB464B1B78012B46D0022B4BD09B
:10164000002B50D1434A1521282000F02DFB00F03B
:10165000C5F8414B1B78012BE3D03D4B1B78012B88
:1016600049D0022B53D0002B5DD13C4E32783C4DFB
:10167000A5FB02323B4FD2083B49384603F088FFB6
:1016800000F0A2F800240094384B394A2146204645
:1016900000F046FB0094374B3A461121204600F0FB
:1016A0003FFB00940C23652228210D2000F0B2FAA4
:1016B0003278A5FB025200940B23D20829210D2079
:1016C00000F0D5FA00F08AF8C3E700232A4A152172
:1016D000282000F0E9FABAE70023284A152128203B
:1016E00000F0E2FAB3E700200090254B254A0D21D7
:1016F00000F016FBABE700F067F8002000901B4BF2
:10170000214A014600F00CFB00F068F8A1E700F068
:101710005BF800200090154B1C4A014600F000FBCE
:1017200000F05CF895E700F04FF800200090184BAF
:10173000144A014600F0F4FA00F050F889E700BFBF
:10174000D40C00208C0C0020E8A000089CAE0008FF
:10175000820C0020509F000800000020800C002018
:10176000CDCCCCCCD8070020B8AE0008E89C00084F
:10177000C8AE000868A00008809E0008689D0008A8
:101780001CA30008B0AE0008D8AE0008ECAE0008FC
:10179000BCA1000800B583B002460B464FF0FF31F4
:1017A00000917821024801F0D9FD03B05DF804FBF7
:1017B0008407002008B5034B587002211846FFF734
:1017C000E9FF08BD7408002008B54FF480620021CD
:1017D000014803F052FF08BD7808002038B5104BCF
:1017E00040221A70002418E0A4F15000C0B2FFF7A4
:1017F000E1FF0020FFF7DEFF1020FFF7DBFF094DC0
:101800008022094901EBC411284603F0B3FF81216E
:10181000681EFFF7BFFF0134E4B2072CE4D938BDDE
:10182000F0070020F10700207808002008B5AE205E
:10183000FFF7C0FF2020FFF7BDFF1020FFF7BAFF22
:10184000B020FFF7B7FFC820FFF7B4FF0020FFF775
:10185000B1FF1020FFF7AEFF4020FFF7ABFF812064
:10186000FFF7A8FFDF20FFF7A5FFA120FFF7A2FFEA
:10187000A620FFF79FFFA820FFF79CFF3F20FFF760
:1018800099FFA420FFF796FFD320FFF793FF0020D6
:10189000FFF790FFD520FFF78DFFF020FFF78AFFBD
:1018A000D920FFF787FF2220FFF784FFDA20FFF718
:1018B00081FF1220FFF77EFFDB20FFF77BFF202058
:1018C000FFF778FF8D20FFF775FF1420FFF772FFF9
:1018D000FFF77AFFFFF782FFAF20FFF76BFF08BD2E
:1018E00010F0800F1FD13F291DD86AB9CA080E4BCE
:1018F00003EBC2131A5C01F007014FF0010C0CFA64
:1019000001F10A431A547047CB08074A02EBC3128D
:1019100012F800C001F0070101238B40DB435BB2EA
:101920000CEA0303135470477808002030B59DF883
:10193000104007282FD811F0800F2CD10CB1D243C2
:10194000D2B29DF80C400134FF2505FA04F464B2CC
:1019500052B244EA020CC3F1080E45FA0EF54CEA05
:10196000050C5FFA8CFC0C4D85F800C00B4B03EBAB
:10197000C010435C0CEA030C00F801C022EA040327
:101980006FF0FF0242FA0EF21340DBB22B704CEA0A
:10199000030C00F801C030BDED07002078080020DE
:1019A0002DE9F04383B0064690461C469DF82890EA
:1019B000CF0801F007052B44082B1EDDAA40CDF807
:1019C0000490072300932B46D2B201463846FFF716
:1019D000ADFFC5F1080248FA02F22C44E4B2CDF89A
:1019E0000490093CE4B200940023D2B23146781C42
:1019F000FFF79CFF03B0BDE8F083AA402C44E4B29B
:101A0000CDF80490013CE4B200942B46D2B20146DA
:101A10003846FFF78BFFEDE72DE9F04182B006462F
:101A200015469846CF0801F00704A240019307230A
:101A300000932346D2B201463846FFF777FF14B928
:101A400002B0BDE8F081C4F1080345FA03F2CDF815
:101A50000480013CE4B200940023D2B23146781CE9
:101A6000FFF764FFECE72DE9F04F85B0804689462B
:101A700092461E469DF838309DF83CB0DF0803F0D2
:101A8000070202920025039312E006FB045209EBC1
:101A9000C40105EB08005B461AF80220C9B2C0B2C7
:101AA000FFF7BAFF0134E4B2BC42EED30135EDB228
:101AB000B54201D20024F7E7039B029ABAB106FBB4
:101AC00007F700241D4610E03A1925F007014944A4
:101AD00004EB0800CDF800B0029B1AF80220C9B24E
:101AE000C0B2FFF75DFF0134E4B2B442ECD305B0FD
:101AF000BDE8F08F2DE9F04F85B005460C469946BC
:101B00009DF83870904224D09046994234D0111AF2
:101B100009B2181B002940DD01230193002840DD94
:101B2000012302932DB224B20029B8BF49421FFA03
:101B300081FA09B20028B8BF40421FFA80FB00B208
:101B4000814248DC0026CDF80CB0DDF808808346E1
:101B50004AE099420BD92E4A11701C46894606E08C
:101B60003A4621462846FFF7BBFE0134E4B2A145C0
:101B7000F6D205B0BDE8F08F90420BD9244B187017
:101B80001546804606E03A4621462846FFF7A8FE5D
:101B90000135EDB2A845F6D2EBE74FF0FF330193E4
:101BA000BCE74FF0FF330293BCE74D442DB24545EF
:101BB000DFD03A46E1B2E8B2FFF792FE5E44B3B23C
:101BC00036B2BAEB460FF0DC029A144424B2039A00
:101BD0009B1A1EB2E9E70026CDF80CA0DDF80490B0
:101BE0008A46E4E7444424B24C45C2D03A46E1B2C6
:101BF000E8B2FFF775FE5644B3B236B2BBEB460F00
:101C0000F0DC019A15442DB2039A9B1A1EB2E9E743
:101C1000EC0700202DE9F04182B007460E461C4635
:101C20009DF820800244D5B2CDF800800B462A46AC
:101C3000FFF760FF3444E4B2CDF8008023462A4623
:101C400021463846FFF756FFCDF8008023463A4636
:101C500031463846FFF74EFFCDF8008023462A462E
:101C600031462846FFF746FF02B0BDE8F0812DE976
:101C7000F04383B00546884617461E469DF82890D7
:101C800000240CE004EB0801C9B2EA19CDF8009079
:101C90000B46D2B22846FFF72DFF0134E4B2B4421E
:101CA000F0D303B0BDE8F08310B582B0547801934F
:101CB000009413785268FFF7D6FE02B010BD70B5DD
:101CC00082B05D68203A1C7804F1070C4FEAEC0CF6
:101CD0005B7803FB0CFC9DF81860019600940CFBEC
:101CE0000252FFF7C0FE02B070BD037890F90020E9
:101CF000002A0DDA03F0E002C02A0BD003F0F00254
:101D0000E02A09D003F0F803F02B07D00020704739
:101D1000012070470220704703207047042070475D
:101D20002DE9F04F87B00390049193461E469DF82D
:101D30004030059333780733DB1096F8019003FBAE
:101D400009F95FFA89F909F104095FFA89F94FF095
:101D5000000A15E03378059A0192009373782A1DE2
:101D60000499039C2046FFF77EFE73782344DBB280
:101D70000393C2441FFA8AFA012300E00023E3B16F
:101D80000BEB0A071BF80A30002B3ED03846FFF752
:101D9000ACFF8046002838D00024337AA342EDD926
:101DA000756809FB045542462946384603F055FC40
:101DB0000028CFD00134E4B2EFE7B8F1010F11D021
:101DC000059B0093F36820220499039C2046FFF7AB
:101DD00076FFF3685B782344DBB20393D0441FFAA9
:101DE00088FACDE7059B0093F3681BF80A20049955
:101DF000039C2046FFF763FFF3685B782344DBB264
:101E00000393C2441FFA8AFABAE707B0BDE8F08F1D
:101E1000022801D80120704708B503F07DFC092392
:101E20000360002008BD000010B5013801280AD861
:101E300014464FF0FF3392B20748006803F0C9F927
:101E400040B9204610BD03F067FC092303604FF042
:101E5000FF30F7E70520F5E7780C0020022801D8CD
:101E60000020704708B503F057FC092303604FF0CA
:101E7000FF3008BD08B503F04FFC092303604FF0A5
:101E8000FF3008BD08B548B94FF0FF3301220848BC
:101E9000006803F004FA40B9012008BD03F03CFCDF
:101EA000092303604FF0FF30F7E70520F5E700BF97
:101EB000780C002008B5022804D84FF400534B607A
:101EC000002008BD03F028FC09230360F8E70000A8
:101ED00082B00E4B9A6942F001029A619A6902F04F
:101EE00001020092009ADA6942F08052DA61DB69FD
:101EF00003F080530193019B054A536823F0E0638C
:101F000043F00073536002B0704700BF00100240FE
:101F10000000014008B508211B4800F0C3FD18B9B6
:101F20004FF0010C00230CE00421174800F0BAFD2B
:101F300040BB4FF0020CF5E75A1C1449885CC854AA
:101F4000D3B2022BF8D9114B83F803C00023032B23
:101F500008D80E4AD15C0E4AD25C914210D10133AE
:101F6000DBB2F4E701236BB10A4B01221A700023A4
:101F7000032B07D8054A0021D1540133DBB2F7E720
:101F80000023F0E708BD00BF00080140840C0020DA
:101F900004AF000800000020FEE7FEE7FEE7FEE7D2
:101FA000FEE770477047704708B500F0A9FA08BD12
:101FB00008B5024800F0C2FB08BD00BFFC060020C7
:101FC00008B5024800F0BAFB08BD00BF400700207A
:101FD00008B5024802F0C3FC08BD00BFD40C0020C5
:101FE00008B5024802F0BBFC08BD00BF8C0C002005
:101FF00008B5024801F074FF08BD00BF8407002047
:1020000008B5024802F03CF808BD00BF8407002074
:1020100038B50446484B984203D0484B9C424FD0B9
:1020200038BD474B1B78002B2DD1FFF773FF454B75
:102030001B78002BF1D10821434800F033FD40B953
:10204000424B1B882BB13F4A127812B90A3B3F4AD8
:10205000138004213C4800F025FD50B93B4B1B8800
:10206000B3F57A7F05D2374A127812B90A33374A64
:102070001380344B1B78002BCFD1304B1B68334A75
:1020800012885A63C9E704212F4800F00BFD68B994
:102090002C490B780133DBB20B702D4AA2FB0302F3
:1020A00002F0FE0000EB52029B1A0B70082126483A
:1020B00000F0F8FC0028B0D1214B00221A70ACE7E8
:1020C000204B1B78012BABD1224C2068FEF746FA3F
:1020D00002460B46FEF7F6F813A3D3E90023FEF7FA
:1020E000A7FA00221C4BFEF7CDFBFEF7DBFC03F04A
:1020F0003FF9FEF745FA0022184BFEF7E3F80CA370
:10210000D3E90023FEF794FA0C4B1D68FEF7A2FCFE
:102110006863236801332360EA6A9A4280D8002208
:1021200022607DE7AFF300804AD8124DFB210940C1
:102130000000000000307F408C0C0020D40C0020F8
:1021400000000020820C002000080140800C0020CC
:10215000ABAAAAAA7C0C002000408F400000F03FF0
:102160000120704708B503F0D7FA162303604FF03B
:10217000FF3008BD08B54FF0FF31FFF7F3FFFEE772
:1021800010B503460C4A0D490D48006840B10C4893
:1021900000680344521A934206D8094A136010BDDE
:1021A0000748084C0460F2E703F0B6FA0C2303601A
:1021B0004FF0FF30F3E700BF0050002000040000A4
:1021C000880C0020781000207047000000B587B010
:1021D00000230293039304930593009301931648FD
:1021E0004FF08042026040F23F6242608360C26012
:1021F0004FF4007303618023836102F0A1FC90B966
:102200004FF48053029302A90B4802F099FD68B97C
:102210000023009301936946074802F08DFE40B900
:1022200007B05DF804FBFFF7A7F9E9E7FFF7A4F9AA
:10223000EEE7FFF7A1F9F3E78C0C002000B583B0BF
:102240000368184A934205D0B3F1804F15D003B00C
:102250005DF804FB144B9A6942F400629A619B6931
:1022600003F400630093009B00220121192000F079
:10227000B3F9192000F0C0F9E9E703F50433DA698E
:1022800042F00102DA61DB6903F001030193019B73
:10229000002211461C2000F09FF91C2000F0ACF930
:1022A000D5E700BF002C01400010024000B587B008
:1022B0000023029303930493059302680D4B9A4203
:1022C00002D007B05DF804FB03F564439A6942F05D
:1022D00004029A619B6903F004030193019B4FF48C
:1022E0008073029302230393059302A9024800F02E
:1022F000CBFAE6E7002C01400008014010B596B08B
:102300000024129413941494159410941194099425
:102310000A940B940C940D940E940F942022214651
:1023200001A803F0AAF92D482D4B03600723436051
:10233000846040F2E733C3600461446180238361B9
:1023400002F0FEFB002837D14FF48053129312A9FC
:10235000224802F0F5FC002831D1204802F01CFC94
:1023600000282FD100231093119310A91B4802F0CD
:10237000E3FD50BB6023099300220A920B920C925A
:102380000D920E920F9209A9144802F05FFCF8B961
:102390000023019302930393049305934FF4005297
:1023A0000692089301A90D4802F0FCFD98B90B486C
:1023B000FFF77CFF16B010BDFFF7DEF8C4E7FFF7AC
:1023C000DBF8CAE7FFF7D8F8CCE7FFF7D5F8D1E795
:1023D000FFF7D2F8DCE7FFF7CFF8E8E7D40C0020EE
:1023E000002C014008B50A480A4B03604FF4E13362
:1023F000436000238360C36003610C2242618361F8
:10240000C36102F0B6FE00B908BDFFF7B5F8FBE7FF
:102410001C0D00200038014010B586B00023029347
:102420000393049305930268174B9A4201D006B0B8
:1024300010BD03F558439A6942F480429A619A6943
:1024400002F480420092009A9A6942F004029A6172
:102450009B6903F004030193019B4FF40073029303
:102460000223039303230593084C02A9204600F09E
:102470000BFA4FF48063029300230393049302A9A1
:10248000204600F001FAD2E7003801400008014080
:1024900010B504460E4B1A784FF47A73B3FBF2F37F
:1024A0000C4A1068B0FBF3F000F0B4F868B90F2CD8
:1024B00001D901200AE0002221464FF0FF3000F050
:1024C0008BF8054B1C60002000E0012010BD00BF10
:1024D00008000020040000200C00002008B5074A76
:1024E000136843F010031360032000F063F80F201B
:1024F000FFF7CEFFFFF7ECFC002008BD00200240F4
:10250000034A1168034B1B780B441360704700BFEC
:10251000640D002008000020014B1868704700BFC0
:10252000640D002038B50446FFF7F6FF0546B4F108
:10253000FF3F02D0044B1B781C44FFF7EDFF401B0C
:10254000A042FAD338BD00BF08000020002808DBF5
:102550000901C9B200F1604000F5614080F8001344
:10256000704700F00F000901C9B2014B19547047C0
:1025700014ED00E000B500F00700C0F1070CBCF15D
:10258000040F28BF4FF0040C031D062B0FD9C31EE8
:102590004FF0FF3E0EFA0CF021EA000199400EFACE
:1025A00003FE22EA0E0241EA02005DF804FB00236A
:1025B000EEE70000074AD36823F4E0631B041B0C1A
:1025C000000200F4E060034343F0BF6343F40033D0
:1025D000D360704700ED00E010B50446054BD868A5
:1025E000C0F30220FFF7C6FF01462046FFF7AEFF0B
:1025F00010BD00BF00ED00E0002807DB00F01F0267
:10260000400901239340024A42F82030704700BF3E
:1026100000E100E00138B0F1807F0BD24FF0E02301
:102620005861054AF02182F82310002098610722A2
:102630001A6170470120704700ED00E050B310B4FC
:1026400002460168144B0B441448A0FB03031B090A
:102650009B001364124BD363022382F82130086875
:102660006FF30D10536894682343D46823431469AF
:1026700023435469234394692343D4692343034385
:102680000B6000209063012382F8213082F8200043
:1026900010BC704701207047F8FFFDBFCDCCCCCCFB
:1026A0000000024008B590F82130DBB2022B03D0C5
:1026B00004238363012008BD0268136823F00E031E
:1026C00013600268136823F0010313600368194A5A
:1026D000934214D0143293421FD0143293421ED02E
:1026E000143293421ED0143293421ED014329342BD
:1026F00002D04FF0807203E04FF4801200E001221C
:102700000D4B5A60012380F82130002380F82030DF
:10271000436B6BB198470020CDE71022F0E74FF4F0
:102720008072EDE74FF48052EAE74FF48032E7E73A
:102730000020C0E7080002400000024038B5C36B2B
:102740001A6804682568016C04238B40134235D055
:1027500015F0040F32D0236813F0200F03D1236843
:1027600023F0040323600368434A934214D01432D5
:10277000934218D01432934217D01432934217D098
:102780001432934217D01432934202D04FF0806239
:1027900003E04FF4800200E00422384B5A60C36A21
:1027A00003B1984738BD4022F7E74FF48062F4E761
:1027B0004FF48042F1E74FF48022EEE702238B4092
:1027C00013423CD015F0020F39D0236813F0200FCC
:1027D00006D1236823F00A032360012380F8213007
:1027E0000368254A934214D0143293421CD0143209
:1027F00093421BD0143293421BD0143293421BD00D
:102800001432934202D04FF0007203E04FF40012F2
:1028100000E00222194B5A60002380F82030836ABE
:10282000002BBFD09847BDE72022F3E74FF400729A
:10283000F0E74FF40052EDE74FF40032EAE70823E7
:102840008B401342AED015F0080FABD0236823F0B5
:102850000E032360026CC16B012303FA02F24A608B
:10286000836380F82130002380F82030036B002B35
:1028700098D0984796E700BF080002400000024049
:1028800090F821007047000070B582B00024A44683
:10289000A1E07E4DAB4214D00CD8A5F58015AB421B
:1028A0000FD005F57025AB420BD0A5F58015AB42D6
:1028B00010D106E0764DAB4203D005F58035AB4232
:1028C00008D18B68002B50D0012B49D042610824DD
:1028D00000E0CC68BEF1FF0F49D806464FEA8C02F3
:1028E00033680F25954023EA050304FA02F21343E7
:1028F00033604B6813F0805F6BD0664B9A6942F08F
:1029000001029A619B6903F001030193019B4FEA65
:102910009C02951C604B53F825600CF00305AD003C
:102920000F23AB4026EA03065C4B984226D003F502
:102930008063984200F08C8003F58063984200F039
:10294000898003F58063984216D0042317E0CC6891
:102950000434BFE7CC680834BCE7CC680C34B9E772
:1029600002610824B6E70024B4E70424B2E7061D98
:10297000ACF108029200B3E7032300E00023AB4070
:1029800033430232444D45F822304B6813F4801F24
:1029900062D0434A936843EA0E0393604B6813F492
:1029A000001F5FD03E4AD36843EA0E03D3604B68F2
:1029B00013F4003F5CD03A4A536843EA0E03536075
:1029C0004B6813F4803F59D0354A136843EA0E032D
:1029D00013600CF1010C0B6833FA0CF254D0012295
:1029E00002FA0CF203EA020E32EA0303F1D14B6859
:1029F000122B3FF64EAF122B3FF66CAF01A555F8E8
:102A000023F000BFC3280008D32800085529000878
:102A100067290008D5280008D5280008D52800080F
:102A2000D5280008D5280008D5280008D528000892
:102A3000D5280008D5280008D5280008D528000882
:102A4000D5280008D52800084F2900085B29000870
:102A5000012394E7022392E7114A936823EA0E03C5
:102A600093609BE70E4AD36823EA0E03D3609EE788
:102A70000B4A536823EA0E035360A1E7084A136820
:102A800023EA0E031360A4E702B070BD0000221019
:102A90000000311000100240000001400008014019
:102AA000000401408368194201D0012070470020D2
:102AB000704703685A6912F0800F01D000221A6132
:102AC000704790F83E30DBB2402B10D00369B3F56D
:102AD000804F1BD0036D002B39D1436CC3F3C81357
:102AE000026803F0060343F0F00313617047036DBF
:102AF0002BB9436C026803F0FE0313617047436C0B
:102B0000026843F00103DBB21361704790F83D3077
:102B1000DBB2212B0FD0436C026843F00103DBB220
:102B20001361436B6BB19B6A5BB10268536843F4FA
:102B3000006353607047436C026803F0FE03136147
:102B4000EFE7836B33B19B6A002BEED102E0036D9C
:102B5000012B00D07047436CC3F3C813026803F025
:102B6000060343F0F1031361F4E7436C0268DBB240
:102B70001361436B3BB19B6A2BB10268536843F40A
:102B8000006353607047836B002BFBD09B6A002B64
:102B9000F3D1F7E710B48DB090F83E30DAB2C16AE5
:102BA000046B90F83D30DBB2222B0AD000230B934C
:102BB00003685A690B929B690B930B9B0DB010BC79
:102BC0007047036D0BB9402A17D0036D1BB9036919
:102BD000B3F5404F19D0438D9BB2002B25D1039301
:102BE00003685A6903929A690392039A1A6842F435
:102BF00000721A6000230365E0E7019303685A69D5
:102C000001929B690193019BD8E70023029303681B
:102C10005A6902929A690292029A1A6842F4807280
:102C20001A60036D01330365C8E7438D9BB2012B26
:102C300026D0438D9BB2022B7CD00268136843F4EC
:102C40008063136003685A6812F4006F0FD0202964
:102C500000F2B9800829C0F0B28008395C4ACA4045
:102C600012F0010F03D05A6842F480525A600023D8
:102C70000A9303685A690A929B690A930A9BB9E707
:102C800011F5803F11D0082934D0202932D0122CE0
:102C90002ED0042940D002293ED010293CD0026811
:102CA000136823F4806313603BE00268136823F425
:102CB0008063136003685A6812F4006F0CD01A68BE
:102CC00022F480621A600023049303685A69049214
:102CD0009B690493049B8DE7002205925A69059233
:102CE0009A690592059A1A6842F400721A6081E79F
:102CF0000129D0D00268136823F480631360002395
:102D0000079303685A6907929A690792079A1A68A3
:102D100042F400721A606DE70268136843F480633E
:102D200013600023069303685A6906929B69069311
:102D3000069B5FE7102912D8264BCB4013F0010FFA
:102D40000DD00268136843F4806313600023099375
:102D500003685A6909929B690993099B10E002680C
:102D6000136843F4006313600023089303685A69EF
:102D700008929A690892089A1A6822F480621A6086
:102D800003685A6812F4006F3FF434AF202911D859
:102D900008290BD308390E4ACA4012F0010F3FF43C
:102DA00029AF5A6842F480525A6023E701297FF420
:102DB00021AFF6E711F5803F7FF41CAFF1E7012961
:102DC0007FF455AF4FE711F5803F7FF450AF4AE7EE
:102DD0000101000114000100438D9BB25BB1426A06
:102DE000036812781A61436A01334362438D9BB2D0
:102DF000013B9BB243857047438D9BB25BB1036837
:102E00001A69436A1A70436A01334362438D9BB265
:102E1000013B9BB24385704782B0002301930E4B68
:102E20001B68DB080D4AA2FB03231B0A03EB830389
:102E30000193019B013B0193019B33B103681B6824
:102E400013F4007FF5D1002004E0036C43F020036D
:102E50000364012002B070470400002089B5F81413
:102E600003685A6912F4806F01D1002070476FF433
:102E700080625A6100230363202280F83D2080F89D
:102E80003E30026C42F00402026480F83C300120C3
:102E90007047C36AB3F52A0F04D0C36AB3F12A4F4F
:102EA00003D070470123C36270470823C362F8E769
:102EB0002DE9F04106460C46174698463BE0FFF7E1
:102EC0002BFB069BC01A404502D8B8F1000F32D147
:102ED000012D18D033689B6924EA03039BB2B3FA2F
:102EE00083F35B099F4226D100233363202286F8B7
:102EF0003D2086F83E30326C42F02002326486F883
:102F00003C30012027E033685B6924EA03039BB26D
:102F1000B3FA83F35B09E5E733685B6924EA030CE2
:102F20001FFA8CFCBCFA8CFC4FEA5C1C674511D183
:102F3000B8F1FF3FC3D1C4F30745012DECD033688E
:102F40009B6924EA030C1FFA8CFCBCFA8CFC4FEA48
:102F50005C1CEBE70020BDE8F0812DE9F843054655
:102F60000E469046994653E01A6842F400721A6081
:102F70002B686FF480625A6100232B63202285F84E
:102F80003D2085F83E302A6C42F004022A6485F820
:102F90003C3001204AE0FFF7BFFAA0EB09004045B2
:102FA00002D8B8F1000F33D1012F17D02B689B69DD
:102FB00026EA03039BB2003B18BF012343B300235F
:102FC0002B63202285F83D2085F83E302A6C42F0A4
:102FD00020022A6485F83C30012027E02B685B69D9
:102FE00026EA03039BB2003B18BF0123E6E72B68E8
:102FF0009C6926EA0404A4B2003C18BF0124A4B1D1
:103000002B685A6912F4806FAED1B8F1FF3FC2D17C
:10301000C6F30747012FEAD12B685C6926EA04044E
:10302000A4B2003C18BF0124E9E70020BDE8F88302
:10303000F0B583B004460D4616461F46C36A082BFA
:103040000DD0012B0BD013F5803F08D0036B122B52
:103050000AD10268136843F48073136004E02268A5
:10306000136843F4807313600097334600224FF0D7
:1030700001112046FFF71CFF80B92369B3F5804F8B
:1030800016D1236805F0FE051D613B463246134903
:103090002046FFF762FFF8B903B0F0BD23681B6854
:1030A00013F4807F02D04FF4007323640320F3E70E
:1030B000EB11226803F0060343F0F00313613B4673
:1030C000324607492046FFF748FF18B92368EDB29A
:1030D0001D61DAE70120DFE70120DDE702000100E2
:1030E0000800010070B504460D46164623685B696A
:1030F00013F0800F21D12046FFF7B2FEF8B9B5F1E9
:10310000FF3FF3D0FFF708FA801BA84201D8002D3B
:10311000ECD123685B6913F0800FE7D100232363B0
:10312000202284F83D2084F83E30226C42F02002B8
:10313000226484F83C30012000E0002070BD0120B2
:10314000FCE770B504460D46164623685B6913F02C
:10315000040F21D12046FFF783FEF8B9B5F1FF3FF8
:10316000F3D0FFF7D9F9801BA84201D8002DECD18C
:1031700023685B6913F0040FE7D100232363202247
:1031800084F83D2084F83E30226C42F02002226414
:1031900084F83C30012000E0002070BD0120FCE7F5
:1031A000002800F0CC8070B5044690F83D30002B2C
:1031B00077D0242384F83D302268136823F001037C
:1031C00013602268136843F4004313602268136895
:1031D00023F40043136001F0BFFA62685A4B9A422D
:1031E00064D85A4B98428CBF00230123002B40F037
:1031F000A8805749A1FB00318B0C25686A6822F032
:103200003F0242EA91426A6021680A6A22F03F0264
:1032100066684D4DAE424FD8013313430B622168AF
:10322000CA6922F44F4222F0FF026568464B9D4274
:103230004CD8431E6D00B3FBF5F3013340F6FC7030
:10324000034278D0C3F30B031A43CA6121680B68A9
:1032500023F0C003E269206A024313430B60216834
:103260008B6823F4034323F0FF032269E0680243E1
:1032700013438B602168CB6823F0FF036269A06968
:1032800002431343CB602268136843F001031360C9
:1032900000202064202384F83D30206384F83E0021
:1032A00070BD80F83C30FEF7E7F882E7294B984282
:1032B0008CBF0023012399E74FF4967505FB03F3B8
:1032C000254DA5FB03539B090133A6E7A668BEB9AC
:1032D000431E05EB450CB3FBFCF30133C3F30B03B7
:1032E000B3FA83F35B0943BBC6B9431E05EB45053F
:1032F000B3FBF5F30133C3F30B0343F40043A3E73C
:10330000431E05EB850C0CEB8C0CB3FBFCF301337B
:10331000C3F30B03B3FA83F35B09E4E7431E05EB46
:10332000850505EB8505B3FBF5F30133C3F30B030B
:1033300043F4404388E7042386E7012384E7012020
:1033400070470120ACE700BFA08601007F841E000B
:1033500083DE1B43FF083D00D34D62102DE9F0438F
:1033600085B004460F46914698460C9EFFF7D4F868
:10337000054694F83D00C0B2202804D00227384604
:1033800005B0BDE8F0830095192301224F4920467E
:10339000FFF78EFD002840F0928094F83C30012B1E
:1033A00000F08F80012384F83C3023681A6812F003
:1033B000010F03D11A6842F001021A6022681368F3
:1033C00023F400631360212384F83D30102384F834
:1033D0003E3000232364C4F82490A4F82A80638D2F
:1033E00023853B4BE3622B46324639462046FFF7A6
:1033F0001FFE0746002866D10023039323685A69FD
:1034000003929B690393039B11E0236C042B01D06F
:103410000127B4E72268136843F400731360F7E7E9
:103420002A4631462046FFF78CFE00282ED1238DF8
:10343000002B36D02A4631462046FFF753FE00289F
:10344000E3D1626A236812781A61606A431C63627E
:10345000618D89B2013989B26185238D013B9BB2AF
:1034600023852268516911F0040FD9D0002BD7D0E1
:1034700043781361636A01336362638D9BB2013BDE
:103480009BB26385238D013B2385C9E7236C042B05
:1034900001D0012773E72268136843F400731360B7
:1034A000F7E72268136843F400731360202384F85D
:1034B0003D30002384F83E3084F83C305FE702273B
:1034C0005DE702275BE7012759E700BF0200100014
:1034D0000000FFFF70477047704708B590F83D3017
:1034E000DAB2438D9BB283B1416A036809781961EE
:1034F000436A01334362438D9BB2013B9BB24385D8
:10350000438D9BB20BB9292A00D008BD02685368CD
:1035100023F48063536021230363282380F83D3024
:10352000FFF7DAFFF1E7704708B590F83D30DAB2FF
:10353000438D9BB283B103681969436A1970436A6A
:1035400001334362438D9BB2013B9BB24385438D64
:103550009BB20BB92A2A00D008BD0268536823F435
:103560008063536022230363282380F83D30FFF7F4
:10357000DAFFF1E7704700B583B090F83D3003F013
:103580002803282B0CD00023019302685169019174
:1035900092690192019A80F83C3003B05DF804FB17
:1035A0000268536823F48063536011F0040F0BD05A
:1035B000002311F0800F09D18289002180F83C108E
:1035C0001946FFF7D7FFE8E70123F2E7028BF4E79C
:1035D0007047000010B5044690F83D30DBB2C26A77
:1035E000082A01D0202A01D1282B06D0212B1FD058
:1035F00023686FF480625A6110BD1D4BE36222683C
:10360000536823F4E063536023686FF480625A6167
:103610002268136823F4806313600023236320224D
:1036200084F83D2084F83E302046FFF7D1FFE3E7E1
:103630000F4BE36221232363202384F83D300023D2
:1036400084F83E302268536823F4E06353602368B3
:103650006FF480625A612268136823F480631360F8
:103660002046FFF726FA2046FFF736FFC4E700BFE3
:103670000000FFFF704708B5C26A90F83D30DBB22A
:10368000212B00D008BD438D9BB263B1426A036811
:1036900012781A61436A01334362438D9BB2013B46
:1036A0009BB24385EEE7082A04D0202A02D012F507
:1036B000803F19D10268536823F4E06353600268C5
:1036C000136843F40073136000230363202380F81E
:1036D0003D3090F83E30DBB2402B15D0002380F80F
:1036E0003E30FFF7F7FECDE70268536823F4E0634E
:1036F000536011230363002380F83E30202380F8B9
:103700003D30FFF7E7FEBDE7002380F83E30FFF7CE
:10371000B1FFB7E708B590F83D30026D9AB9C36CB8
:10372000012B08D0836C0268C3F307231361036D78
:103730000133036508BD836C0268DBB21361036D5E
:1037400002330365F6E7DBB2026D012A23D0026D76
:10375000022A3ED1222B26D0428D92B20AB1212BD1
:103760002AD0428D92B2002AE4D1212BE2D1026804
:10377000536823F4E06353600268136843F40073F2
:10378000136000230363202280F83D2080F83E3040
:10379000FFF770FFCEE7836C0268DBB21361036D45
:1037A00001330365C6E70268136843F4807313604E
:1037B000036D01330365BDE7426A036812781A613D
:1037C000436A01334362438D9BB2013B9BB2438505
:1037D000B0E7FFF76EF9ADE710B590F83D30DBB21A
:1037E00090F83E20D2B2C46A018D00293BD1212B32
:1037F00002D0402A42D010BD082C04D0202C02D088
:1038000014F5803F19D10268536823F4E0635360D4
:103810000268136843F400731360002303632023DA
:1038200080F83D3090F83E30DBB2402B15D00023BD
:1038300080F83E30FFF74EFEDDE70268536823F460
:10384000E063536011230363002380F83E3020239C
:1038500080F83D30FFF73EFECDE7002380F83E3094
:10386000FFF708FFC7E7212BC3D1438D9BB243B9B4
:103870000268536823F480635360BCE7222BBAD1FB
:10388000F3E790F83E30DBB2402B0CD0426A03687D
:1038900012781A61436A01334362438D9BB2013B44
:1038A0009BB24385A7E7FFF735FFA4E7704708B54C
:1038B000C26A438D9BB2042B14D0438D9BB2032B61
:1038C00022D0438D9BB2022B39D003681A69436A18
:1038D0001A70436A01334362438D9BB2013B9BB232
:1038E000438510E00268536823F4806353600368E3
:1038F0001A69436A1A70436A01334362438D9BB26B
:10390000013B9BB2438508BD01684B6823F480638B
:103910004B60042A06D0022A04D00268136823F4FC
:103920008063136003681A69436A1A70436A01333B
:103930004362438D9BB2013B9BB24385E3E7531E39
:103940000F2B42D8DFE803F0083B413B41414141A6
:10395000414141414141410801680B6823F48063C2
:103960000B6003681969436A1970416A4B1C436212
:10397000438D9BB2013B9BB2438503681B694B702F
:10398000436A01334362438D9BB2013B9BB2438543
:1039900001684B6823F440734B60202380F83D306E
:1039A00090F83E30DBB2402B15D0002380F83E303B
:1039B000082A17D0202A15D01223036314E00168C7
:1039C0000B6843F480630B60CBE701680B6843F43A
:1039D00000730B60C5E7002380F83E300363FFF7F8
:1039E00065FF90E700230363FFF775FD8BE77047E2
:1039F00038B590F83D30DBB2222B00D038BD0446FC
:103A0000C56A438D9BB2032B15D903681A69436AB3
:103A10001A70436A01334362438D9BB2013B9BB2F0
:103A20004385438D9BB2032BE8D10268536823F48E
:103A300080635360E2E7C26A022A01D0012B05D9F4
:103A40002268536823F480635360D7E7FFF7E4F9F3
:103A5000002835D12268136823F48063136022683C
:103A6000536823F4E063536023681A69636A1A7029
:103A7000636A01336362638D9BB2013B9BB26385D2
:103A8000202384F83D3094F83E30DBB2402B09D03F
:103A9000002384F83E30082D0CD0202D0AD01223AC
:103AA000236309E0002384F83E3023632046FFF7B8
:103AB000FDFEA3E7002323632046FFF70CFD9DE7EF
:103AC0002268536823F4E063536023681A69636AC9
:103AD0001A70636A01336362638D9BB2013B9BB2D0
:103AE0006385202384F83D30002384F83E3020464F
:103AF000FFF77DFF82E7704700B583B00023019395
:103B0000406A90F83D20D2B2324B1B68DB08324944
:103B1000A1FB03131B0A03EB8303C3EBC303019352
:103B2000019B43B1019B013B019303681B6813F4A4
:103B3000007FF5D103E0036C43F020030364436B83
:103B40000BB100219962836B0BB10021996201686E
:103B50000B6823F480630B6000234385436B0BB138
:103B600000215963836B0BB10021596301680B6815
:103B700023F001030B6090F83D30DBB2602B0ED0D8
:103B800002F02802282A14D0202380F83D30002398
:103B900080F83E30FFF72BFF03B05DF804FB2023D5
:103BA00080F83D30002380F83E300364FFF7A3FF28
:103BB000F2E70268136843F00103136002681368B8
:103BC00043F48063136000230363282380F83D30AF
:103BD000E0E700BF0400002089B5F81410B50446E2
:103BE00090F83D30DBB290F83E20D2B2102A36D0A9
:103BF000402A34D003F02802282A38D0226852689C
:103C000012F4006F07D1602B05D0202384F83D30DB
:103C1000002384F83E300023236323685A6812F49B
:103C2000006F48D05A6822F400625A60626B92F8C2
:103C30002130DBB2012B20D0444B5363606BFEF785
:103C400031FD002849D02268136823F00103136076
:103C5000202384F83D30606B436B98473DE0222B76
:103C6000C8D121680A6822F400620A60C2E7002312
:103C70002363282384F83D30CFE7A36B334A5A638C
:103C8000A06BFEF70FFD40B323685A6912F0400F96
:103C900005D01A69636A1A70636A01336362226825
:103CA000136823F001031360202384F83D30A06BD8
:103CB000436B984711E094F83D20D2B2602A1FD0A0
:103CC0005A6912F0400F05D01A69636A1A70636A64
:103CD000013363622046FFF78AFE236C13F00F0F57
:103CE00004D02268536823F4E063536094F83D30B5
:103CF000DBB2226C12F0040F01D0282B18D010BDBB
:103D0000202284F83D20002222645A6912F0400FDC
:103D100005D01A69636A1A70636A013363622268A4
:103D2000136823F0010313602046FFF7E4FED4E795
:103D3000074BE36200232363202284F83D2084F8AC
:103D40003E302046FFF744FCD9E700BFF93A0008AF
:103D50000000FFFF30B583B0044690F83D50EDB24F
:103D60000268536823F4E0635360002301930368FF
:103D70005A6901921A6842F001021A60019B0268B6
:103D8000136823F48063136003685A6812F4006FA9
:103D900038D0222D21D02A2D1FD0426B12685268B4
:103DA00092B24285428D92B21AB1026C42F0040284
:103DB00002645A6822F400625A60606BFEF760FD8C
:103DC00001281FD0636B444A5A63606BFEF76AFC9C
:103DD000C0B1606B436B984714E0A26B12685268E5
:103DE00092B26285628D92B21AB1226C42F00402E4
:103DF00022645A6822F400625A60A06BFEF740FD0C
:103E0000012842D1638D9BB233B323685A6912F003
:103E1000040F0AD01A69636A1A70636A0133636215
:103E2000638D9BB2013B9BB2638523685A6912F094
:103E3000400F0AD01A69636A1A70636A01336362B9
:103E4000638D9BB2013B9BB26385638D9BB21BB1BB
:103E5000236C43F004032364236C13BB2A2D25D069
:103E600094F83D30DBB2282B29D0236B222B01D0D4
:103E7000222D19D100232363202284F83D2084F8C9
:103E80003E302046FFF74FFB0EE0A36B124A5A6309
:103E9000A06BFEF707FC0028B4D0A06B436B9847DB
:103EA000B0E72046FFF79AFE03B030BD002323633E
:103EB000282384F83D302046FFF735FBD0E7074B39
:103EC000E36200232363202284F83D2084F83E30FF
:103ED0002046FFF77DFBE7E7F93A00080000FFFF07
:103EE000F8B5044602685568C66A90F83E30DBB201
:103EF00090F83D10C8B2102B13D0402B11D0236C7A
:103F0000002B7AD05369002113F0020F78D015F4FA
:103F1000007F75D0236C03B191692046FFF72BFB1E
:103F2000F8BDD2F818C0516911F0010705D1B6F5F6
:103F30002A0FF5D0B6F12A4FF2D017B115F4007F51
:103F400029D111F0080F02D015F4007F2AD111F009
:103F5000020F02D015F4007F28D11CF0040F31D0DD
:103F6000526812F4006FDBD111F0800F05D015F408
:103F7000806F02D011F0040F1CD011F0040FCFD0CD
:103F800015F4007FCCD0212818D0402BC8D1204672
:103F9000FFF7C0FBC4E72046FEF77BFF2046FEF795
:103FA00090FDBDE72046FEF7E0FDB9E72046FEF7AD
:103FB000F1FDB5E72046FFF70FFCB1E72046FFF71C
:103FC0005AFBADE7536813F4006FA9D111F0400F0D
:103FD00005D015F4806F02D011F0040F09D011F054
:103FE000040F9DD015F4007F9AD02046FFF75FFCA8
:103FF00096E72046FFF7FCFC92E79169536983E757
:1040000013F0100F02D015F4007F18D121281AD018
:10401000292818D013F0400F05D015F4806F02D076
:1040200013F0040F28D013F0040F3FF479AF15F408
:10403000007F3FF475AF2046FEF7DEFE70E72046B6
:10404000FFF788FE6CE713F0800F05D015F4806F42
:1040500002D013F0040F0BD013F0040F3FF460AF45
:1040600015F4007F3FF45CAF2046FEF7B5FE57E73E
:104070002046FFF732FA53E72046FFF755FA4FE79D
:10408000F8B5044603685D695F6890F83E20D2B2D7
:10409000C5F3002615F4807F0DD0C7F3002617F472
:1040A000807F08D06FF48071596101680B6843F418
:1040B00000430B60012615F4007F08D017F4807FC1
:1040C00005D046F0020623686FF40071596115F4BB
:1040D000806F19D017F4807F16D0638D99B294F851
:1040E0003D30DBB2206B202A1BD023686FF4806147
:1040F000596146F00406102A01D0402A04D12268F2
:10410000136843F40073136015F4006F17D017F4AD
:10411000807F14D046F0080623686FF400625A616D
:104120000EE00029E1D1212B05D0292B03D0282B2B
:10413000DBD12128D9D12046FFF74CFAE4E72EB194
:10414000236C334323642046FFF748FDF8BD00008D
:1041500082B0084B1B68084AA2FB03235B0A00FBE2
:1041600003F3019300BF019B5A1E0192002BF9D16A
:1041700002B0704704000020D34D6210002800F008
:10418000F18170B582B00446036813F0010F2CD0A2
:10419000994B5B6803F00C03042B1DD0964B5B68B6
:1041A00003F00C03082B12D06368B3F5803F41D0B5
:1041B000002B55D103F1804303F504331A6822F430
:1041C00080321A601A6822F480221A6037E08A4B23
:1041D0005B6813F4803FE7D0874B1B6813F4003F04
:1041E00003D06368002B00F0BF81236813F0020F37
:1041F00075D0814B5B6813F00C0F5FD07E4B5B6812
:1042000003F00C03082B54D02369002B00F08A80A4
:104210007A4B01221A60FEF77FF90546764B1B6840
:1042200013F0020F75D1FEF777F9401B0228F5D97C
:1042300003209EE1704A136843F48033136063687F
:1042400043B3FEF769F905466B4B1B6813F4003F57
:10425000CBD1FEF761F9401B6428F5D9032088E132
:10426000B3F5A02F09D0644B1A6822F480321A608B
:104270001A6822F480221A60E1E703F18043A3F573
:104280003C331A6842F480221A601A6842F4803281
:104290001A60D4E7FEF740F90546574B1B6813F444
:1042A000003FA2D0FEF738F9401B6428F5D903205F
:1042B0005FE1514B5B6813F4803FA5D14E4B1B6807
:1042C00013F0020F03D02369012B40F04F814A4ABB
:1042D000136823F0F803616943EAC103136023689C
:1042E00013F0080F33D0A369002B5CD0434B01229D
:1042F000C3F88024FEF710F905463F4B5B6A13F0C4
:10430000020F21D1FEF708F9401B0228F5D903203E
:104310002FE1394A136823F0F803616943EAC103C6
:104320001360DCE7354B00221A60FEF7F5F805460E
:10433000314B1B6813F0020FD1D0FEF7EDF8401B94
:104340000228F5D9032014E10120FFF701FF2368BB
:1043500013F0040F00F09680274BDB6913F0805FA9
:1043600034D1254BDA6942F08052DA61DB6903F01F
:1043700080530193019B0125214B1B6813F4807F1F
:1043800026D0E368012B3DD0002B53D103F18043AD
:1043900003F504331A6A22F001021A621A6A22F043
:1043A00004021A6233E0154B0022C3F88024FEF7A2
:1043B000B3F80546104B5B6A13F0020FC7D0FEF747
:1043C000ABF8401B0228F5D90320D2E00025D3E743
:1043D0000B4A136843F480731360FEF79DF806469A
:1043E000074B1B6813F4807FCBD1FEF795F8801B39
:1043F0006428F5D90320BCE00010024000004242CE
:10440000007000405F4A136A43F001031362E368DF
:1044100033B3FEF781F806465A4B1B6A13F0020FBE
:104420002FD1FEF779F8801B41F288339842F3D9F7
:1044300003209EE0052B09D0524B1A6A22F001029C
:104440001A621A6A22F004021A62E0E74D4B1A6AF5
:1044500042F004021A621A6A42F001021A62D6E7B6
:10446000FEF75AF80646474B1B6A13F0020F08D0B6
:10447000FEF752F8801B41F288339842F3D90320AB
:1044800077E0E5B9E369002B72D03E4A526802F04A
:104490000C02082A56D0022B17D03B4B00221A667A
:1044A000FEF73AF80446374B1B6813F0007F47D0FD
:1044B000FEF732F8001B0228F5D9032059E0314AF3
:1044C000D36923F08053D361DCE72F4B00221A66B7
:1044D000FEF722F805462B4B1B6813F0007F06D031
:1044E000FEF71AF8401B0228F5D9032041E0236AA1
:1044F000B3F5803F1AD023494B6823F47413226A22
:10450000606A024313434B601F4B01221A66FEF799
:1045100003F804461B4B1B6813F0007F0ED1FDF718
:10452000FBFF001B0228F5D9032022E0154A53683F
:1045300023F40033A1680B435360DCE7002018E04C
:10454000002016E0012B16D00E4B5B6803F480317F
:10455000226A914211D103F47013626A93420ED120
:10456000002006E001207047012002E0012000E069
:10457000002002B070BD0120FBE70120F9E7012017
:10458000F7E700BF00100240000042420F4B5B689B
:1045900003F00C02082A01D00D487047C3F3834290
:1045A0000C49885C13F4803F0BD0084B5B68C3F365
:1045B0004043094AD35C064A02FB00F0B0FBF3F02B
:1045C0007047064B03FB00F0704700BF001002402D
:1045D00000127A0024AF000820AF000800093D0057
:1045E000002800F0A08070B50D460446524B1B68B1
:1045F00003F007038B420BD24F4A136823F00703E3
:104600000B431360136803F007038B4240F08D8067
:10461000236813F0020F17D013F0040F04D0474A99
:10462000536843F4E0635360236813F0080F04D029
:10463000424A536843F460535360404A536823F03E
:10464000F003A1680B435360236813F0010F31D0CE
:104650006368012B20D0022B25D0384A126812F053
:10466000020F64D035494A6822F0030213434B60BD
:10467000FDF752FF0646314B5B6803F00C0362689E
:10468000B3EB820F16D0FDF747FF801B41F2883352
:104690009842F0D9032045E0284A126812F4003FFE
:1046A000E0D101203EE0254A126812F0007FD9D106
:1046B000012037E0204B1B6803F00703AB420AD907
:1046C0001D4A136823F007032B431360136803F09C
:1046D0000703AB422DD1236813F0040F06D0174A0D
:1046E000536823F4E063E1680B435360236813F0DD
:1046F000080F07D0114A536823F46053216943EA35
:10470000C1035360FFF742FF0C4B5B68C3F3031315
:104710000B4AD35CD8400B4B18600B4B1868FDF765
:10472000B7FE002070BD012070470120FAE701208C
:10473000F8E70120F6E700BF002002400010024029
:1047400010AF0008040000200C000020014B186886
:10475000704700BF0400002008B5FFF7F7FF044BC7
:104760005B68C3F30223034AD35CD84008BD00BF93
:104770000010024008AF000808B5FFF7E7FF044B40
:104780005B68C3F3C223034AD35CD84008BD00BFB3
:104790000010024008AF000830B4026A036A23F038
:1047A000010303624568836923F073030C681C43AB
:1047B00022F002028B6813430B4A904206D04560F8
:1047C00084614A684263036230BC704723F0080387
:1047D000CA681A4322F0040325F440754A692A4343
:1047E0008D691543EBE700BF002C014030B4036A2C
:1047F000026A22F4807202624468C26922F0730283
:104800000D68154323F400738A6843EA02230D4AB6
:10481000904206D04460C5614A68C263036230BCFE
:10482000704723F40063CA6843EA022323F48063D9
:1048300024F440544A6944EA02148A6944EA02149E
:10484000E8E700BF002C014030B4036A026A22F49A
:10485000805202624468C26922F4E6420D6842EA6C
:10486000052223F400538D6843EA0533074DA8421F
:1048700006D04460C2614A680264036230BC70477B
:1048800024F480444D6944EA8514F2E7002C014089
:1048900010B4036A046A24F001040462846924F0F9
:1048A000F00C4CEA021223F00A030B43826103620C
:1048B00010BC704710B4036A046A24F01004046248
:1048C000846924F4704C4CEA023223F0A00343EADA
:1048D00001138261036210BC7047836823F0700388
:1048E0000B4343F0070383607047000090F83D30AE
:1048F000DBB2012B27D1022380F83D300268D36858
:1049000043F00103D3600368114A934210D0B3F11E
:10491000804F0DD0A2F59432934209D002F5806207
:10492000934205D01A6842F001021A6000207047D5
:104930009A6802F00702062A07D01A6842F00102BC
:104940001A6000207047012070470020704700BFA8
:10495000002C01407047704770477047704770B532
:1049600004460368DE681D6915F0020F10D016F0CA
:10497000020F0DD06FF002021A6101230377036862
:104980009B6913F0030F5ED0FFF7E6FF0023237748
:1049900015F0040F12D016F0040F0FD023686FF03B
:1049A00004021A610223237723689B6913F4407F72
:1049B0004FD02046FFF7D0FF0023237715F0080FD4
:1049C00012D016F0080F0FD023686FF008021A619A
:1049D000042323772368DB6913F0030F40D02046BC
:1049E000FFF7BAFF0023237715F0100F12D016F04F
:1049F000100F0FD023686FF010021A61082323777D
:104A00002368DB6913F4407F31D02046FFF7A4FF11
:104A10000023237715F0010F02D016F0010F2DD1DE
:104A200015F0800F02D016F0800F2FD115F0400F37
:104A300002D016F0400F31D115F0200F02D016F041
:104A4000200F33D170BDFFF786FF2046FFF785FFAB
:104A50009CE72046FFF77FFF2046FFF77EFFABE78E
:104A60002046FFF778FF2046FFF777FFBAE720469A
:104A7000FFF771FF2046FFF770FFC9E723686FF06B
:104A800001021A612046FDF7C3FAC9E723686FF0F7
:104A900080021A61204600F0AFFAC7E723686FF082
:104AA00040021A612046FFF759FFC5E723686FF0FF
:104AB00020021A61204600F09EFAC3E703681F4AED
:104AC00090420AD0B0F1804F07D0A2F594329042C4
:104AD00003D002F58062904203D123F070034A684C
:104AE0001343164A90420AD0B0F1804F07D0A2F586
:104AF0009432904203D002F58062904203D123F4B5
:104B00004073CA68134323F080034A691343036068
:104B10008B68C3620B688362084B98420AD00123FA
:104B20004361036913F0010F03D0036923F001030C
:104B3000036170470B690363F1E700BF002C01407C
:104B400040B310B5044690F83D30F3B1022384F829
:104B50003D30214651F8040BFFF7B0FF012384F8E4
:104B6000463084F83E3084F83F3084F8403084F892
:104B7000413084F8423084F8433084F8443084F87B
:104B8000453084F83D30002010BD80F83C30FDF702
:104B900055FBDBE70120704740B310B5044690F8A1
:104BA0003D30F3B1022384F83D30214651F8040B27
:104BB000FFF784FF012384F8463084F83E3084F800
:104BC0003F3084F8403084F8413084F8423084F833
:104BD000433084F8443084F8453084F83D30002078
:104BE00010BD80F83C30FFF7B5FEDBE701207047D1
:104BF00030B4036A026A22F01002026244688269D9
:104C000022F4E6420D6842EA052223F020038D6873
:104C100043EA05130C4DA84206D0446082614A68FD
:104C20008263036230BC704723F08003CD6843EA9F
:104C3000051323F0400324F440644D6944EA8504DD
:104C40008D6944EA8504E8E7002C014038B590F806
:104C50003C30012B66D004460D46012380F83C30E1
:104C60000C2A5AD8DFE802F0075959591B595959EB
:104C70003059595944000068FFF78EFD2268936946
:104C800043F0080393612268936923F0040393615E
:104C90002268936929690B43936100203EE0006814
:104CA000FFF7A6FF2268936943F4006393612268CB
:104CB000936923F48063936122689369296943EAC5
:104CC00001239361002029E00068FFF78FFD22682F
:104CD000D36943F00803D3612268D36923F0040346
:104CE000D3612268D36929690B43D361002015E0A1
:104CF0000068FFF7A9FD2268D36943F40063D3611C
:104D00002268D36923F48063D3612268D369296957
:104D100043EA0123D361002000E00120002384F84E
:104D20003C3038BD0220FCE710B4846824F47F4C8A
:104D300042EA03220A4342EA0C02826010BC704736
:104D400090F83C30012B78D010B50446012380F850
:104D50003C30022380F83D300268936823F47F439F
:104D600023F0770393600B68602B4CD023D8402B43
:104D700054D011D8202B03D00AD80BB1102B05D159
:104D800019462068FFF7A9FD002028E0012026E051
:104D9000302BF5D0012022E0502B0AD1CA68496897
:104DA0000068FFF775FD50212068FFF796FD002091
:104DB00015E0012013E0B3F5805F3AD0B3F5005F52
:104DC00014D0702B37D1CB684A6889680068FFF728
:104DD000ABFF2268936843F07703936000200123C0
:104DE00084F83D30002384F83C3010BDCB684A681D
:104DF00089680068FFF798FF2268936843F480434E
:104E000093600020EBE7CA6849680068FFF752FD2D
:104E100060212068FFF761FD0020E0E7CA6849686B
:104E20000068FFF735FD40212068FFF756FD0020A0
:104E3000D5E70020D3E70120D1E70220704701F039
:104E40001F014FF0010C0CFA01FC036A23EA0C036A
:104E50000362036A8A4013430362704710B5044635
:104E6000084651BB94F83E30DBB2013B18BF01232A
:104E7000002B5BD1002839D1022384F83E30012277
:104E800001462068FFF7DBFF23682A4A93423DD0A2
:104E90002368284A93423ED0B3F1804F3BD0A2F51D
:104EA0009432934237D002F58062934233D01A682D
:104EB00042F001021A60002039E0042908D00829D4
:104EC0000DD094F84130DBB2013B18BF0123CFE78E
:104ED00094F83F30DBB2013B18BF0123C8E794F8D8
:104EE0004030DBB2013B18BF0123C1E7042805D0E5
:104EF000082807D0022384F84130C0E7022384F851
:104F00003F30BCE7022384F84030B8E75A6C42F4E3
:104F100000425A64BCE79A6802F00702062A07D0EA
:104F20001A6842F001021A60002000E0012010BD62
:104F30000020FCE7002C014090F83C20012A2CD0F6
:104F400010B40346012280F83C20022280F83D2064
:104F500002685068946820F0700C086840EA0C0001
:104F600050601A680E4882420AD0B2F1804F07D0D2
:104F7000A0F59430824203D000F58060824204D1D3
:104F800024F08004496821439160012283F83D2088
:104F9000002083F83C0010BC70470220704700BF1F
:104FA000002C0140024690F83C30012B21D0012317
:104FB00080F83C30CB6823F440738868034323F4C3
:104FC00080634868034323F400630868034323F4C1
:104FD00080530869034323F400534869034323F4CF
:104FE0008043C9690B4311684B64002082F83C0080
:104FF00070470220704770477047026802F10C0347
:1050000053E8003F23F490730C3242E8003100294A
:10501000F3D1026802F1140353E8003F23F00103C7
:10502000143242E800310029F3D1036B012B05D083
:10503000202380F84230002303637047026802F1A6
:105040000C0353E8003F23F010030C3242E8003118
:105050000029F3D1ECE7000010B50446026813699B
:1050600023F44053C1680B431361836802691343FF
:1050700042691A430168CB6823F4B05323F00C0350
:105080001343CB600268536923F4407381690B4377
:1050900053610268134B9A4220D0FFF75DFB024632
:1050A00002EB820202EB820263689B00B2FBF3F226
:1050B0000D48A0FB02314909642303FB11231B01A6
:1050C0003233A0FB03035B0903F0F00202EB011291
:1050D00003F00F03216813448B6010BDFFF74CFBF6
:1050E0000246DDE7003801401F85EB512DE9F04312
:1050F00083B005460E4617469946DDF828802B6892
:105100001C6836EA04040CBF01240024BC4228D1E8
:10511000B8F1FF3FF3D0FDF7FFF9A0EB09004045E0
:1051200023D8B8F1000F22D02B68DA6812F0040FF0
:10513000E5D0802EE3D0402EE1D01A6812F0080F9F
:10514000DDD0002401941A6801925B680193019BF1
:105150002846FFF752FF08236B6485F84040012082
:1051600000E0002003B0BDE8F0830320FAE703204D
:10517000F8E760B310B5044690F8413013B3242328
:1051800084F841302268D36823F40053D36020466A
:10519000FFF762FF2268136923F4904313612268CA
:1051A000536923F02A0353612268D36843F4005300
:1051B000D36000206064202384F8413084F84230BA
:1051C000606310BD80F84030FDF726F9D7E7012075
:1051D00070472DE9F04182B01E4690F84130DBB2B5
:1051E000202B56D104460D469046002955D00AB9C9
:1051F00001204FE000234364212380F84130FDF774
:105200008BF90746A4F82480A4F82680A368B3F598
:10521000805F02D04FF0000814E023692BB34FF0F9
:1052200000080FE0202384F84130032032E038F8F2
:10523000023B2268C3F308035360E28C92B2013A46
:1052400092B2E284E38C9BB293B100963B4600227B
:1052500080212046FFF74AFF0028E3D1002DE6D049
:1052600015F8012B23685A60E7E7A8460025E9E70F
:1052700000963B46002240212046FFF737FF18B931
:10528000202384F8413005E0202384F841300320B6
:1052900000E0022002B0BDE8F0810120FAE72DE92C
:1052A000F04182B01E4690F84230DBB2202B59D13B
:1052B00004460D469046002958D00AB9012052E014
:1052C00000234364222280F842200363FDF724F97F
:1052D0000746A4F82C80A4F82E80A368B3F5805F5D
:1052E00002D04FF000081CE0236913B14FF0000812
:1052F00017E0A846002514E0202384F8423003205C
:1053000031E023685B68C3F3080328F8023B03E03D
:1053100023685B682B700135E28D92B2013A92B23C
:10532000E285E38D9BB2C3B100963B46002220216B
:105330002046FFF7DBFE0028DED1002DE1D0A36878
:10534000B3F5805FE4D013B92369002BE0D0236864
:105350005B6803F07F032B70DDE7202384F8423085
:10536000002000E0022002B0BDE8F0810120FAE751
:10537000F8B52449FAF7ECFE0446FBF767FD05464D
:1053800000212046FBF73AFD002838D12846FBF7DC
:1053900093FC01462046FBF7D9FB4FF08841FAF712
:1053A000D7FE0546FBF778FD84B2B4F5007F06D33F
:1053B0004FF088412846FBF7C9FB054600242046EC
:1053C000FBF776FC01462846FBF7C0FB05460E4B73
:1053D00053F82470013453F8246001464FF07E5096
:1053E000FBF7B4FB3946FAF7B3FE044631462846CC
:1053F000FAF7AEFE01462046FBF7AAFBF8BD013DD9
:10540000C4E700BF83F9223E34AF0008002310B583
:105410000446C0E90033C0E90433836081814366F8
:10542000C2818361194608225C3000F026F90D4BD9
:10543000E46123620C4B63620C4BA3620C4BE3628E
:105440000C4B9C4206D003F16802944202D0D03348
:105450009C4205D104F15800BDE8104000F086B927
:1054600010BD00BFD5550008F75500082F5600089D
:1054700053560008680D0020024A0349034800F013
:1054800069B800BF100000207372000820000020DF
:1054900041680C4B10B59942044601D001F0E9FE79
:1054A000A168094B994202D0204601F0E2FEE16872
:1054B000064B994204D02046BDE8104001F0D9BE09
:1054C00010BD00BF680D0020D00D0020380E002058
:1054D00010B50B4B0B4C0C4A20461A6004210022DD
:1054E000FFF794FF04F1680001220921FFF78EFF06
:1054F00004F1D0000222BDE810401221FFF786BF60
:10550000A00E0020680D002079540008014800F02A
:105510002FB900BFAA0E0020014800F02AB900BF31
:10552000AA0E002010B50446FFF7F0FF636B1BB115
:10553000BDE81040FFF7F0BF044B6363044B1B68EA
:10554000002BF5D1FFF7C4FFF2E700BF915400082C
:10555000A00E00202DE9F843074688461446002691
:10556000D4E90195B9F1010905D52468002CF7D1DA
:105570003046BDE8F883AB89012B07D9B5F90E3069
:10558000013303D029463846C04706436835E9E76A
:105590000EB46FF0004110B500249DB01FAB029017
:1055A0000690079104910948094953F8042B059185
:1055B000006802A901931B9400F056FC029B1C702A
:1055C0001DB0BDE8104003B0704700BF1C000020B4
:1055D0000802FFFF10B50C46B1F90E1000F078F884
:1055E0000028ABBF236DA3891B1823F48053ACBFE5
:1055F0002365A38110BD2DE9F0411F468B89054627
:10560000DB050C46164605D502230022B1F90E1023
:1056100000F04CF8A389324623F48053A381284636
:105620003B46B4F90E10BDE8F04100F063B810B588
:105630000C46B1F90E1000F039F8431CA38915BFD0
:10564000206523F4805343F48053A38118BFA381C2
:1056500010BDB1F90E1000F019B810B501390244AF
:10566000904201D1002005E0037811F8014FA342D8
:1056700001D0181B10BD0130F2E7034602449342EB
:1056800000D1704703F8011BF9E7000038B500238B
:10569000054D044608462B60FCF7E0FB431C02D195
:1056A0002B6803B1236038BDA40E002038B5044632
:1056B000084611460022054D2A601A46FCF7DAFB1F
:1056C000431C02D12B6803B1236038BDA40E002017
:1056D00038B50446084611460022054D2A601A4690
:1056E000FCF7D0FB431C02D12B6803B1236038BD0B
:1056F000A40E002038B50446084611460022054D88
:105700002A601A46FCF790FB431C02D12B6803B1B8
:10571000236038BDA40E0020014B1868704700BFFD
:105720001C00002070B500260C4D0D4C641BA4100D
:10573000A64209D104F0CAFA00260A4D0A4C641B9D
:10574000A410A64205D170BD55F8043B9847013618
:10575000EEE755F8043B98470136F2E7CCBA00086B
:10576000CCBA0008CCBA0008D4BA00087047704719
:10577000704770470A44914200F1FF3300D17047EF
:1057800010B511F8014B914203F8014FF9D110BD4A
:10579000024B13B1024800F005B87047000000004A
:1057A000CD750008002301461A46184601F06EBF69
:1057B0002DE9F84306460820894601F01BFF804684
:1057C000234F304600F044FBBB685D6825F00305BD
:1057D000A5F11104A4EB09044444B4FBF8F4013C22
:1057E00008FB04F4A04505DD304600F037FB00203F
:1057F000BDE8F8830021304601F0D8FEBB682B4499
:105800009842F1D13046614201F0D0FE013010D112
:105810000021304601F0CAFEBA68831A0F2BE3DD7F
:105820000C4943F0010309685360401A0A490860B3
:10583000DAE7BB68084A2D1B45F001055D60136877
:1058400030461B1B136000F009FB0120D0E700BFAE
:105850006C01002064010020B00E0020F8B5044661
:105860000F46002900F0B18000F0F2FA57F8042C3E
:10587000564D22F00100A7F1080303EB000CA968C4
:10588000DCF80460614526F0030602F001021BD13A
:1058900006443AB957F8082C9B1A1644D3E9021269
:1058A000CA60916046F001025A60AB60484B1B68C9
:1058B000B34204D8474B20461968FFF779FF2046CA
:1058C000BDE8F84000F0CABACCF80460002A38D12C
:1058D00057F8081C05F108075B1A08449968B94293
:1058E00031D0DF68CF60B9600CEB06014968C907A9
:1058F0000BD4DCF8081030443ABB374EB14224D107
:105900000122C5E90433C3E9021140F001015960E5
:105910001850002AD3D1B0F5007F1BD20121C20854
:1059200040098140686801320143696055F83200DE
:1059300005EBC2010839C3E9020145F83230C36002
:10594000BDE70022D0E70122CEE7DCF80C60CE6094
:10595000B160DAE7B0F5206F4FEA502214D2820925
:105960003832511C55F8311005EBC2068E4225D154
:105970000120921000FA02F2686802436A60C3E9EB
:105980000216B360CB609AE7142A01D85B32E8E7CD
:10599000542A02D8020B6E32E3E7B2F5AA7F02D88E
:1059A000C20B7732DDE740F254518A4296BF820C37
:1059B0007E227C32D5E789688E4204D04A6822F084
:1059C00003028242F7D8CE68D9E7F8BD6C01002007
:1059D00068010020E00E00207401002001F10B039B
:1059E000162B2DE9F74F054606D933F0070704D5E6
:1059F0000C232B600024A1E11027B942F8D82846D7
:105A000000F026FAB7F5FC7FAE4E37D207F1080258
:105A100032445468A2F108018C424FEAD70302D104
:105A2000D468A24210D0D4E902126368CA6023F09D
:105A30000303916023445A6842F001025A602846E9
:105A400000F00CFA083479E1023334699E498C4243
:105A500077D0626822F0030CACEB07000F2848DD1A
:105A6000E21940F0010347F001076760C6E904222C
:105A7000C2E90211536044F80C00E0E77B0A2AD027
:105A8000042B12D8BB0938335A1C06EBC2025468E7
:105A9000A2F1080C644506D0626822F00302D01B14
:105AA0000F281CDD013B0133CFE7142B01D85B33FA
:105AB000EAE7542B02D83B0B6E33E5E7B3F5AA7F38
:105AC00002D8FB0B7733DFE740F25452934204D8FD
:105AD000BB0C7C33D8E73F23D6E77E23D4E70028EE
